{
  "_format": "hh-sol-artifact-1",
  "contractName": "IncentivesExecutor",
  "sourceName": "contracts/proposals/IncentivesExecutor.sol",
  "abi": [
    {
      "inputs": [
        {
          "internalType": "address",
          "name": "starlayToken",
          "type": "address"
        },
        {
          "internalType": "address",
          "name": "poolConfigurator",
          "type": "address"
        },
        {
          "internalType": "address",
          "name": "addressProvider",
          "type": "address"
        },
        {
          "internalType": "address",
          "name": "lendingPool",
          "type": "address"
        },
        {
          "internalType": "address",
          "name": "rewardsVault",
          "type": "address"
        },
        {
          "internalType": "address",
          "name": "incentiveControllerProxy",
          "type": "address"
        },
        {
          "internalType": "address",
          "name": "incentiveControllerImpl",
          "type": "address"
        }
      ],
      "stateMutability": "nonpayable",
      "type": "constructor"
    },
    {
      "inputs": [],
      "name": "ADDRESSES_PROVIDER",
      "outputs": [
        {
          "internalType": "address",
          "name": "",
          "type": "address"
        }
      ],
      "stateMutability": "view",
      "type": "function"
    },
    {
      "inputs": [],
      "name": "INCENTIVES_CONTROLLER_IMPL_ADDRESS",
      "outputs": [
        {
          "internalType": "address",
          "name": "",
          "type": "address"
        }
      ],
      "stateMutability": "view",
      "type": "function"
    },
    {
      "inputs": [],
      "name": "INCENTIVES_CONTROLLER_PROXY_ADDRESS",
      "outputs": [
        {
          "internalType": "address",
          "name": "",
          "type": "address"
        }
      ],
      "stateMutability": "view",
      "type": "function"
    },
    {
      "inputs": [],
      "name": "LENDING_POOL",
      "outputs": [
        {
          "internalType": "address",
          "name": "",
          "type": "address"
        }
      ],
      "stateMutability": "view",
      "type": "function"
    },
    {
      "inputs": [],
      "name": "POOL_CONFIGURATOR",
      "outputs": [
        {
          "internalType": "address",
          "name": "",
          "type": "address"
        }
      ],
      "stateMutability": "view",
      "type": "function"
    },
    {
      "inputs": [],
      "name": "REWARDS_VAULT",
      "outputs": [
        {
          "internalType": "address",
          "name": "",
          "type": "address"
        }
      ],
      "stateMutability": "view",
      "type": "function"
    },
    {
      "inputs": [],
      "name": "STARLAY_TOKEN",
      "outputs": [
        {
          "internalType": "address",
          "name": "",
          "type": "address"
        }
      ],
      "stateMutability": "view",
      "type": "function"
    },
    {
      "inputs": [
        {
          "internalType": "address[6]",
          "name": "lTokenImplementations",
          "type": "address[6]"
        },
        {
          "internalType": "address[6]",
          "name": "variableDebtImplementations",
          "type": "address[6]"
        },
        {
          "internalType": "address[6]",
          "name": "reserves",
          "type": "address[6]"
        }
      ],
      "name": "execute",
      "outputs": [],
      "stateMutability": "nonpayable",
      "type": "function"
    }
  ],
  "bytecode": "0x6101606040523480156200001257600080fd5b50604051620011833803806200118383398101604081905262000035916200009b565b6001600160601b0319606097881b811660805295871b861660a05293861b851660c05291851b841660e052841b831661010052831b82166101205290911b16610140526200012f565b80516001600160a01b03811681146200009657600080fd5b919050565b600080600080600080600060e0888a031215620000b6578283fd5b620000c1886200007e565b9650620000d1602089016200007e565b9550620000e1604089016200007e565b9450620000f1606089016200007e565b935062000101608089016200007e565b92506200011160a089016200007e565b91506200012160c089016200007e565b905092959891949750929550565b60805160601c60a05160601c60c05160601c60e05160601c6101005160601c6101205160601c6101405160601c610fc4620001bf60003980610116528061046c52508061034f52806108a55280610ac75250806103715280610aa352508061066d5280610aeb52508060f2528061039352508061032d5280610a5b5250806109235280610a7f5250610fc46000f3fe608060405234801561001057600080fd5b50600436106100885760003560e01c8063929beeff1161005b578063929beeff146100d0578063946776cd146100d8578063b1a17f50146100e0578063b4dcfc77146100e857610088565b80630542975c1461008d57806313d0a5a4146100ab5780634a7b381f146100b357806358725084146100c8575b600080fd5b6100956100f0565b6040516100a29190610def565b60405180910390f35b610095610114565b6100c66100c1366004610cb8565b610138565b005b610095610a59565b610095610a7d565b610095610aa1565b610095610ac5565b610095610ae9565b7f000000000000000000000000000000000000000000000000000000000000000081565b7f000000000000000000000000000000000000000000000000000000000000000081565b60408051600c8082526101a08201909252600091606091906020820161018080368337505060408051600c8082526101a0820190925292935060609291506020820161018080368337019050509050670b3884b67f6359ba8160008151811061019d57fe5b602002602001018181525050671a2e8b3b0ba6d0bd816001815181106101bf57fe5b602002602001018181525050670b3884b67f6359ba816002815181106101e157fe5b602002602001018181525050671a2e8b3b0ba6d0bd8160038151811061020357fe5b602002602001018181525050670b3884b67f6359ba8160048151811061022557fe5b602002602001018181525050671a2e8b3b0ba6d0bd8160058151811061024757fe5b60200260200101818152505067077b03424621bb818160068151811061026957fe5b602002602001018181525050671a2e8b3b0ba6d0bd8160078151811061028b57fe5b60200260200101818152505067077b03424621bb81816008815181106102ad57fe5b602002602001018181525050671a2e8b3b0ba6d0bd816009815181106102cf57fe5b6020026020010181815250506703bd817439419e3881600a815181106102f157fe5b6020026020010181815250506708ba2e6903e2459481600b8151811061031357fe5b602090810291909101015260405163ca446dd960e01b81527f0000000000000000000000000000000000000000000000000000000000000000907f0000000000000000000000000000000000000000000000000000000000000000907f0000000000000000000000000000000000000000000000000000000000000000907f0000000000000000000000000000000000000000000000000000000000000000906001600160a01b0382169063ca446dd9906103f4907f703c2c8634bed68d98c029c18f310e7f7ec0e5d6342c590190b3cb8b3ba54532908790600401610eb9565b600060405180830381600087803b15801561040e57600080fd5b505af1158015610422573d6000803e3d6000fd5b505060405163177314a360e21b81526001600160a01b0384169250635dcc528c9150610494907f703c2c8634bed68d98c029c18f310e7f7ec0e5d6342c590190b3cb8b3ba54532907f000000000000000000000000000000000000000000000000000000000000000090600401610eb9565b600060405180830381600087803b1580156104ae57600080fd5b505af11580156104c2573d6000803e3d6000fd5b506104d592505050565b60405180910390fd5b60005b6006811015610881578881600681106104ed57fe5b60200201516001600160a01b03168b826006811061050757fe5b60200201516001600160a01b031663b16a19de6040518163ffffffff1660e01b815260040160206040518083038186803b15801561054457600080fd5b505afa158015610558573d6000803e3d6000fd5b505050506040513d601f19601f8201168201806040525081019061057c9190610c95565b6001600160a01b0316146105a25760405162461bcd60e51b81526004016104cc90610f14565b8881600681106105ae57fe5b60200201516001600160a01b03168a82600681106105c857fe5b60200201516001600160a01b031663b16a19de6040518163ffffffff1660e01b815260040160206040518083038186803b15801561060557600080fd5b505afa158015610619573d6000803e3d6000fd5b505050506040513d601f19601f8201168201806040525081019061063d9190610c95565b6001600160a01b0316146106635760405162461bcd60e51b81526004016104cc90610ed0565b61066b610b0d565b7f00000000000000000000000000000000000000000000000000000000000000006001600160a01b03166335ea6a758b84600681106106a657fe5b60200201516040518263ffffffff1660e01b81526004016106c79190610def565b6101806040518083038186803b1580156106e057600080fd5b505afa1580156106f4573d6000803e3d6000fd5b505050506040513d601f19601f820116820180604052508101906107189190610cff565b9050856001600160a01b031663958f35988b846006811061073557fe5b60200201518e856006811061074657fe5b60200201516040518363ffffffff1660e01b8152600401610768929190610e03565b600060405180830381600087803b15801561078257600080fd5b505af1158015610796573d6000803e3d6000fd5b50505050856001600160a01b0316634d9782588b84600681106107b557fe5b60200201518d85600681106107c657fe5b60200201516040518363ffffffff1660e01b81526004016107e8929190610e03565b600060405180830381600087803b15801561080257600080fd5b505af1158015610816573d6000803e3d6000fd5b505050508060e00151888a806001019b508151811061083157fe5b6001600160a01b0390921660209283029190910190910152610120810151885160018b019a8a91811061086057fe5b6001600160a01b0390921660209283029190910190910152506001016104d8565b5060405162415b9960e21b81526001600160a01b038316906301056e64906108cd907f000000000000000000000000000000000000000000000000000000000000000090600401610def565b600060405180830381600087803b1580156108e757600080fd5b505af11580156108fb573d6000803e3d6000fd5b505060405163a9059cbb60e01b81526001600160a01b038516925063a9059cbb9150610958907f0000000000000000000000000000000000000000000000000000000000000000906a1af7684f34a4348710000090600401610e1d565b600060405180830381600087803b15801561097257600080fd5b505af1158015610986573d6000803e3d6000fd5b5050604051633cf8b8d960e11b81526001600160a01b03861692506379f171b291506109b89089908990600401610e36565b600060405180830381600087803b1580156109d257600080fd5b505af11580156109e6573d6000803e3d6000fd5b50506040516339ccbdd360e01b81526001600160a01b03861692506339ccbdd39150610a1b904262278d000190600401610f49565b600060405180830381600087803b158015610a3557600080fd5b505af1158015610a49573d6000803e3d6000fd5b5050505050505050505050505050565b7f000000000000000000000000000000000000000000000000000000000000000081565b7f000000000000000000000000000000000000000000000000000000000000000081565b7f000000000000000000000000000000000000000000000000000000000000000081565b7f000000000000000000000000000000000000000000000000000000000000000081565b7f000000000000000000000000000000000000000000000000000000000000000081565b604051806101800160405280610b21610b78565b815260006020820181905260408201819052606082018190526080820181905260a0820181905260c0820181905260e082018190526101008201819052610120820181905261014082018190526101609091015290565b6040518060200160405280600081525090565b8051610b9681610f76565b919050565b600082601f830112610bab578081fd5b60405160c0810181811067ffffffffffffffff82111715610bc857fe5b6040529050808260c08101851015610bdf57600080fd5b60005b6006811015610c0b578135610bf681610f76565b83526020928301929190910190600101610be2565b50505092915050565b600060208284031215610c25578081fd5b6040516020810181811067ffffffffffffffff82111715610c4257fe5b6040529151825250919050565b80516fffffffffffffffffffffffffffffffff81168114610b9657600080fd5b805164ffffffffff81168114610b9657600080fd5b805160ff81168114610b9657600080fd5b600060208284031215610ca6578081fd5b8151610cb181610f76565b9392505050565b60008060006102408486031215610ccd578182fd5b610cd78585610b9b565b9250610ce68560c08601610b9b565b9150610cf6856101808601610b9b565b90509250925092565b6000610180808385031215610d12578182fd5b610d1b81610f52565b9050610d278484610c14565b8152610d3560208401610c4f565b6020820152610d4660408401610c4f565b6040820152610d5760608401610c4f565b6060820152610d6860808401610c4f565b6080820152610d7960a08401610c4f565b60a0820152610d8a60c08401610c6f565b60c0820152610d9b60e08401610b8b565b60e0820152610100610dae818501610b8b565b90820152610120610dc0848201610b8b565b90820152610140610dd2848201610b8b565b90820152610160610de4848201610c84565b908201529392505050565b6001600160a01b0391909116815260200190565b6001600160a01b0392831681529116602082015260400190565b6001600160a01b03929092168252602082015260400190565b604080825283519082018190526000906020906060840190828701845b82811015610e785781516001600160a01b031684529284019290840190600101610e53565b50505083810382850152845180825285830191830190845b81811015610eac57835183529284019291840191600101610e90565b5090979650505050505050565b9182526001600160a01b0316602082015260400190565b60208082526024908201527f4465627420546f6b656e20756e6465726c79696e6720646f6573206e6f74206d6040820152630c2e8c6d60e31b606082015260800190565b6020808252818101527f4c546f6b656e20756e6465726c79696e6720646f6573206e6f74206d61746368604082015260600190565b90815260200190565b60405181810167ffffffffffffffff81118282101715610f6e57fe5b604052919050565b6001600160a01b0381168114610f8b57600080fd5b5056fea264697066735822122076a26e367f2d23e2ef717a8c1a26252c84bd018a666bcde6f567956902afbab264736f6c63430007050033",
  "linkReferences": {},
  "deployedLinkReferences": {}
}