{
  "_format": "hh-sol-artifact-1",
  "contractName": "PullRewardsIncentivesController",
  "sourceName": "contracts/incentives/PullRewardsIncentivesController.sol",
  "abi": [
    {
      "inputs": [
        {
          "internalType": "contract IERC20",
          "name": "rewardToken",
          "type": "address"
        }
      ],
      "stateMutability": "nonpayable",
      "type": "constructor"
    },
    {
      "anonymous": false,
      "inputs": [
        {
          "indexed": true,
          "internalType": "address",
          "name": "asset",
          "type": "address"
        },
        {
          "indexed": false,
          "internalType": "uint256",
          "name": "emission",
          "type": "uint256"
        }
      ],
      "name": "AssetConfigUpdated",
      "type": "event"
    },
    {
      "anonymous": false,
      "inputs": [
        {
          "indexed": true,
          "internalType": "address",
          "name": "asset",
          "type": "address"
        },
        {
          "indexed": false,
          "internalType": "uint256",
          "name": "index",
          "type": "uint256"
        }
      ],
      "name": "AssetIndexUpdated",
      "type": "event"
    },
    {
      "anonymous": false,
      "inputs": [
        {
          "indexed": true,
          "internalType": "address",
          "name": "user",
          "type": "address"
        },
        {
          "indexed": true,
          "internalType": "address",
          "name": "claimer",
          "type": "address"
        }
      ],
      "name": "ClaimerSet",
      "type": "event"
    },
    {
      "anonymous": false,
      "inputs": [
        {
          "indexed": false,
          "internalType": "uint256",
          "name": "newDistributionEnd",
          "type": "uint256"
        }
      ],
      "name": "DistributionEndUpdated",
      "type": "event"
    },
    {
      "anonymous": false,
      "inputs": [
        {
          "indexed": true,
          "internalType": "address",
          "name": "user",
          "type": "address"
        },
        {
          "indexed": false,
          "internalType": "uint256",
          "name": "amount",
          "type": "uint256"
        }
      ],
      "name": "RewardsAccrued",
      "type": "event"
    },
    {
      "anonymous": false,
      "inputs": [
        {
          "indexed": true,
          "internalType": "address",
          "name": "user",
          "type": "address"
        },
        {
          "indexed": true,
          "internalType": "address",
          "name": "to",
          "type": "address"
        },
        {
          "indexed": true,
          "internalType": "address",
          "name": "claimer",
          "type": "address"
        },
        {
          "indexed": false,
          "internalType": "uint256",
          "name": "amount",
          "type": "uint256"
        }
      ],
      "name": "RewardsClaimed",
      "type": "event"
    },
    {
      "anonymous": false,
      "inputs": [
        {
          "indexed": true,
          "internalType": "address",
          "name": "vault",
          "type": "address"
        }
      ],
      "name": "RewardsVaultUpdated",
      "type": "event"
    },
    {
      "anonymous": false,
      "inputs": [
        {
          "indexed": true,
          "internalType": "address",
          "name": "user",
          "type": "address"
        },
        {
          "indexed": true,
          "internalType": "address",
          "name": "asset",
          "type": "address"
        },
        {
          "indexed": false,
          "internalType": "uint256",
          "name": "index",
          "type": "uint256"
        }
      ],
      "name": "UserIndexUpdated",
      "type": "event"
    },
    {
      "inputs": [],
      "name": "DISTRIBUTION_END",
      "outputs": [
        {
          "internalType": "uint256",
          "name": "",
          "type": "uint256"
        }
      ],
      "stateMutability": "view",
      "type": "function"
    },
    {
      "inputs": [],
      "name": "EMISSION_MANAGER",
      "outputs": [
        {
          "internalType": "address",
          "name": "",
          "type": "address"
        }
      ],
      "stateMutability": "view",
      "type": "function"
    },
    {
      "inputs": [],
      "name": "PRECISION",
      "outputs": [
        {
          "internalType": "uint8",
          "name": "",
          "type": "uint8"
        }
      ],
      "stateMutability": "view",
      "type": "function"
    },
    {
      "inputs": [],
      "name": "REVISION",
      "outputs": [
        {
          "internalType": "uint256",
          "name": "",
          "type": "uint256"
        }
      ],
      "stateMutability": "view",
      "type": "function"
    },
    {
      "inputs": [],
      "name": "REWARD_TOKEN",
      "outputs": [
        {
          "internalType": "address",
          "name": "",
          "type": "address"
        }
      ],
      "stateMutability": "view",
      "type": "function"
    },
    {
      "inputs": [
        {
          "internalType": "address",
          "name": "",
          "type": "address"
        }
      ],
      "name": "assets",
      "outputs": [
        {
          "internalType": "uint104",
          "name": "emissionPerSecond",
          "type": "uint104"
        },
        {
          "internalType": "uint104",
          "name": "index",
          "type": "uint104"
        },
        {
          "internalType": "uint40",
          "name": "lastUpdateTimestamp",
          "type": "uint40"
        }
      ],
      "stateMutability": "view",
      "type": "function"
    },
    {
      "inputs": [
        {
          "internalType": "address[]",
          "name": "assets",
          "type": "address[]"
        },
        {
          "internalType": "uint256",
          "name": "amount",
          "type": "uint256"
        },
        {
          "internalType": "address",
          "name": "to",
          "type": "address"
        }
      ],
      "name": "claimRewards",
      "outputs": [
        {
          "internalType": "uint256",
          "name": "",
          "type": "uint256"
        }
      ],
      "stateMutability": "nonpayable",
      "type": "function"
    },
    {
      "inputs": [
        {
          "internalType": "address[]",
          "name": "assets",
          "type": "address[]"
        },
        {
          "internalType": "uint256",
          "name": "amount",
          "type": "uint256"
        },
        {
          "internalType": "address",
          "name": "user",
          "type": "address"
        },
        {
          "internalType": "address",
          "name": "to",
          "type": "address"
        }
      ],
      "name": "claimRewardsOnBehalf",
      "outputs": [
        {
          "internalType": "uint256",
          "name": "",
          "type": "uint256"
        }
      ],
      "stateMutability": "nonpayable",
      "type": "function"
    },
    {
      "inputs": [
        {
          "internalType": "address[]",
          "name": "assets",
          "type": "address[]"
        },
        {
          "internalType": "uint256",
          "name": "amount",
          "type": "uint256"
        }
      ],
      "name": "claimRewardsToSelf",
      "outputs": [
        {
          "internalType": "uint256",
          "name": "",
          "type": "uint256"
        }
      ],
      "stateMutability": "nonpayable",
      "type": "function"
    },
    {
      "inputs": [
        {
          "internalType": "address[]",
          "name": "assets",
          "type": "address[]"
        },
        {
          "internalType": "uint256[]",
          "name": "emissionsPerSecond",
          "type": "uint256[]"
        }
      ],
      "name": "configureAssets",
      "outputs": [],
      "stateMutability": "nonpayable",
      "type": "function"
    },
    {
      "inputs": [
        {
          "internalType": "address",
          "name": "asset",
          "type": "address"
        }
      ],
      "name": "getAssetData",
      "outputs": [
        {
          "internalType": "uint256",
          "name": "",
          "type": "uint256"
        },
        {
          "internalType": "uint256",
          "name": "",
          "type": "uint256"
        },
        {
          "internalType": "uint256",
          "name": "",
          "type": "uint256"
        }
      ],
      "stateMutability": "view",
      "type": "function"
    },
    {
      "inputs": [
        {
          "internalType": "address",
          "name": "user",
          "type": "address"
        }
      ],
      "name": "getClaimer",
      "outputs": [
        {
          "internalType": "address",
          "name": "",
          "type": "address"
        }
      ],
      "stateMutability": "view",
      "type": "function"
    },
    {
      "inputs": [],
      "name": "getDistributionEnd",
      "outputs": [
        {
          "internalType": "uint256",
          "name": "",
          "type": "uint256"
        }
      ],
      "stateMutability": "view",
      "type": "function"
    },
    {
      "inputs": [
        {
          "internalType": "address[]",
          "name": "assets",
          "type": "address[]"
        },
        {
          "internalType": "address",
          "name": "user",
          "type": "address"
        }
      ],
      "name": "getRewardsBalance",
      "outputs": [
        {
          "internalType": "uint256",
          "name": "",
          "type": "uint256"
        }
      ],
      "stateMutability": "view",
      "type": "function"
    },
    {
      "inputs": [],
      "name": "getRewardsVault",
      "outputs": [
        {
          "internalType": "address",
          "name": "",
          "type": "address"
        }
      ],
      "stateMutability": "view",
      "type": "function"
    },
    {
      "inputs": [
        {
          "internalType": "address",
          "name": "user",
          "type": "address"
        },
        {
          "internalType": "address",
          "name": "asset",
          "type": "address"
        }
      ],
      "name": "getUserAssetData",
      "outputs": [
        {
          "internalType": "uint256",
          "name": "",
          "type": "uint256"
        }
      ],
      "stateMutability": "view",
      "type": "function"
    },
    {
      "inputs": [
        {
          "internalType": "address",
          "name": "_user",
          "type": "address"
        }
      ],
      "name": "getUserUnclaimedRewards",
      "outputs": [
        {
          "internalType": "uint256",
          "name": "",
          "type": "uint256"
        }
      ],
      "stateMutability": "view",
      "type": "function"
    },
    {
      "inputs": [
        {
          "internalType": "address",
          "name": "user",
          "type": "address"
        },
        {
          "internalType": "uint256",
          "name": "totalSupply",
          "type": "uint256"
        },
        {
          "internalType": "uint256",
          "name": "userBalance",
          "type": "uint256"
        }
      ],
      "name": "handleAction",
      "outputs": [],
      "stateMutability": "nonpayable",
      "type": "function"
    },
    {
      "inputs": [
        {
          "internalType": "address",
          "name": "rewardsVault",
          "type": "address"
        },
        {
          "internalType": "address",
          "name": "emissionManager",
          "type": "address"
        }
      ],
      "name": "initialize",
      "outputs": [],
      "stateMutability": "nonpayable",
      "type": "function"
    },
    {
      "inputs": [
        {
          "internalType": "address",
          "name": "user",
          "type": "address"
        },
        {
          "internalType": "address",
          "name": "caller",
          "type": "address"
        }
      ],
      "name": "setClaimer",
      "outputs": [],
      "stateMutability": "nonpayable",
      "type": "function"
    },
    {
      "inputs": [
        {
          "internalType": "uint256",
          "name": "distributionEnd",
          "type": "uint256"
        }
      ],
      "name": "setDistributionEnd",
      "outputs": [],
      "stateMutability": "nonpayable",
      "type": "function"
    },
    {
      "inputs": [
        {
          "internalType": "address",
          "name": "rewardsVault",
          "type": "address"
        }
      ],
      "name": "setRewardsVault",
      "outputs": [],
      "stateMutability": "nonpayable",
      "type": "function"
    }
  ],
  "bytecode": "0x60a06040526000805534801561001457600080fd5b50604051611d03380380611d0383398101604081905261003391610048565b60601b6001600160601b031916608052610076565b600060208284031215610059578081fd5b81516001600160a01b038116811461006f578182fd5b9392505050565b60805160601c611c6b61009860003980610a4a528061120a5250611c6b6000f3fe608060405234801561001057600080fd5b50600436106101425760003560e01c80638b599f26116100b8578063cc69afec1161007c578063cc69afec1461025f578063dde43cba1461028c578063e23ddec514610294578063f11b81881461029c578063f5bb3e02146102be578063f5cf673b146102d157610142565b80638b599f261461024c578063919cd40f1461025f57806399248ea714610267578063aaf5eb681461026f578063cbcbb5071461028457610142565b806339ccbdd31161010a57806339ccbdd3146101cd57806341485304146101e0578063485cc955146101f35780636d34b96e1461020657806374d945ec1461021957806379f171b21461023957610142565b80631652e7b714610147578063198fa81e146101725780633111e7b31461019257806331873e2e146101a55780633373ee4c146101ba575b600080fd5b61015a61015536600461176f565b6102e4565b60405161016993929190611bb9565b60405180910390f35b61018561018036600461176f565b610324565b6040516101699190611bb0565b6101856101a03660046118f2565b610343565b6101b86101b33660046117bb565b61038d565b005b6101856101c8366004611789565b610422565b6101b86101db3660046119b9565b610453565b6101856101ee3660046118a8565b6104bd565b6101b8610201366004611789565b6104d7565b61018561021436600461194d565b610586565b61022c61022736600461176f565b61062b565b6040516101699190611a0c565b6101b861024736600461183f565b610649565b61018561025a3660046117ed565b61088b565b610185610a42565b61022c610a48565b610277610a6c565b6040516101699190611bcf565b61022c610a71565b610185610a80565b61022c610a85565b6102af6102aa36600461176f565b610a94565b60405161016993929190611b86565b6101b86102cc36600461176f565b610acb565b6101b86102df366004611789565b610b3f565b6001600160a01b0316600090815260346020526040902054600160681b81046001600160681b039081169290821691600160d01b900464ffffffffff1690565b6001600160a01b0381166000908152603660205260409020545b919050565b60006001600160a01b0382166103745760405162461bcd60e51b815260040161036b90611a4e565b60405180910390fd5b610382858585333387610bc0565b90505b949350505050565b600061039b84338486610e7f565b9050801561041c576001600160a01b0384166000908152603660205260409020546103c69082610f3e565b6001600160a01b038516600081815260366020526040908190209290925590517f2468f9268c60ad90e2d49edb0032c8a001e733ae888b3ab8e982edf535be1a7690610413908490611bb0565b60405180910390a25b50505050565b6001600160a01b03808216600090815260346020908152604080832093861683526001909301905220545b92915050565b6033546001600160a01b0316331461047d5760405162461bcd60e51b815260040161036b90611b15565b60358190556040517f1cc1849a6602c3e91f2088cadea4381cc5717f2f28584197060ed2ebb434c16f906104b2908390611bb0565b60405180910390a150565b60006104cd848484333333610bc0565b90505b9392505050565b60006104e1610f4e565b905060005481116105235760405162461bcd60e51b815260040180806020018281038252602e815260200180611bde602e913960400191505060405180910390fd5b6000818155603880546001600160a01b038087166001600160a01b03199283161792839055603380548783169316929092179091556040519116917f28a48cbce43190d77247f342cf319b1607bff4ef716cf26b76cf7bb71baebaa591a2505050565b6001600160a01b038083166000908152603760205260408120549091339185911682146105c55760405162461bcd60e51b815260040161036b90611b44565b6001600160a01b0385166105eb5760405162461bcd60e51b815260040161036b90611a20565b6001600160a01b0384166106115760405162461bcd60e51b815260040161036b90611a4e565b61061f888888338989610bc0565b98975050505050505050565b6001600160a01b039081166000908152603760205260409020541690565b6033546001600160a01b031633146106735760405162461bcd60e51b815260040161036b90611b15565b8281146106925760405162461bcd60e51b815260040161036b90611a7a565b60608367ffffffffffffffff811180156106ab57600080fd5b506040519080825280602002602001820160405280156106e557816020015b6106d26116c5565b8152602001906001900390816106ca5790505b50905060005b8481101561087a578383828181106106ff57fe5b9050602002013584848381811061071257fe5b905060200201356001600160681b03161461073f5760405162461bcd60e51b815260040161036b90611aa9565b85858281811061074b57fe5b9050602002016020810190610760919061176f565b82828151811061076c57fe5b6020026020010151604001906001600160a01b031690816001600160a01b03168152505083838281811061079c57fe5b905060200201358282815181106107af57fe5b60209081029190910101516001600160681b0390911690528585828181106107d357fe5b90506020020160208101906107e8919061176f565b6001600160a01b031663b1bf962d6040518163ffffffff1660e01b815260040160206040518083038186803b15801561082057600080fd5b505afa158015610834573d6000803e3d6000fd5b505050506040513d601f19601f8201168201806040525081019061085891906119d1565b82828151811061086457fe5b60209081029190910181015101526001016106eb565b5061088481610f53565b5050505050565b6001600160a01b03811660009081526036602052604081205460608467ffffffffffffffff811180156108bd57600080fd5b506040519080825280602002602001820160405280156108f757816020015b6108e46116e5565b8152602001906001900390816108dc5790505b50905060005b85811015610a235786868281811061091157fe5b9050602002016020810190610926919061176f565b82828151811061093257fe5b60209081029190910101516001600160a01b03909116905286868281811061095657fe5b905060200201602081019061096b919061176f565b6001600160a01b0316630afbcdc9866040518263ffffffff1660e01b81526004016109969190611a0c565b604080518083038186803b1580156109ad57600080fd5b505afa1580156109c1573d6000803e3d6000fd5b505050506040513d601f19601f820116820180604052508101906109e591906119e9565b8383815181106109f157fe5b6020026020010151602001848481518110610a0857fe5b602090810291909101015160400191909152526001016108fd565b50610a38610a31858361108f565b8390610f3e565b9695505050505050565b60355490565b7f000000000000000000000000000000000000000000000000000000000000000081565b601281565b6033546001600160a01b031690565b600181565b6038546001600160a01b031690565b6034602052600090815260409020546001600160681b0380821691600160681b810490911690600160d01b900464ffffffffff1683565b6033546001600160a01b03163314610af55760405162461bcd60e51b815260040161036b90611b15565b603880546001600160a01b0319166001600160a01b0383169081179091556040517f28a48cbce43190d77247f342cf319b1607bff4ef716cf26b76cf7bb71baebaa590600090a250565b6033546001600160a01b03163314610b695760405162461bcd60e51b815260040161036b90611b15565b6001600160a01b0382811660008181526037602052604080822080546001600160a01b0319169486169485179055517f4925eafc82d0c4d67889898eeed64b18488ab19811e61620f387026dec126a289190a35050565b600084610bcf57506000610a38565b6001600160a01b03831660009081526036602052604090205480861115610dd55760608767ffffffffffffffff81118015610c0957600080fd5b50604051908082528060200260200182016040528015610c4357816020015b610c306116e5565b815260200190600190039081610c285790505b50905060005b88811015610d6f57898982818110610c5d57fe5b9050602002016020810190610c72919061176f565b828281518110610c7e57fe5b60209081029190910101516001600160a01b039091169052898982818110610ca257fe5b9050602002016020810190610cb7919061176f565b6001600160a01b0316630afbcdc9876040518263ffffffff1660e01b8152600401610ce29190611a0c565b604080518083038186803b158015610cf957600080fd5b505afa158015610d0d573d6000803e3d6000fd5b505050506040513d601f19601f82011682018060405250810190610d3191906119e9565b838381518110610d3d57fe5b6020026020010151602001848481518110610d5457fe5b60209081029190910101516040019190915252600101610c49565b506000610d7c868361118d565b90508015610dd257610d8e8382610f3e565b9250856001600160a01b03167f2468f9268c60ad90e2d49edb0032c8a001e733ae888b3ab8e982edf535be1a7682604051610dc99190611bb0565b60405180910390a25b50505b80610de4576000915050610a38565b6000818711610df35786610df5565b815b6001600160a01b038616600090815260366020526040902081840390559050610e1e84826111f9565b856001600160a01b0316846001600160a01b0316866001600160a01b03167f5637d7f962248a7f05a7ab69eec6446e31f3d0a299d997f135a65c62806e789184604051610e6b9190611bb0565b60405180910390a498975050505050505050565b6001600160a01b0380841660009081526034602090815260408083209388168352600184019091528120549091908280610eba888588611234565b9050808314610f32578615610ed757610ed4878285611364565b91505b6001600160a01b03808a1660008181526001870160205260409081902084905551918a16917fbb123b5c06d5408bbea3c4fef481578175cfb432e3b482c6186f02ed9086585b90610f29908590611bb0565b60405180910390a35b50979650505050505050565b8082018281101561044d57600080fd5b600190565b60005b815181101561108b57600060346000848481518110610f7157fe5b6020026020010151604001516001600160a01b03166001600160a01b031681526020019081526020016000209050610fd8838381518110610fae57fe5b60200260200101516040015182858581518110610fc757fe5b602002602001015160200151611234565b50828281518110610fe557fe5b60209081029190910101515181546cffffffffffffffffffffffffff19166001600160681b03909116178155825183908390811061101f57fe5b6020026020010151604001516001600160a01b03167f87fa03892a0556cb6b8f97e6d533a150d4d55fcbf275fff5fa003fa636bcc7fa84848151811061106157fe5b60200260200101516000015160405161107a9190611b72565b60405180910390a250600101610f56565b5050565b600080805b8351811015611185576000603460008684815181106110af57fe5b602090810291909101810151516001600160a01b0316825281019190915260400160009081208054875191935061112491600160681b82046001600160681b039081169290811691600160d01b90910464ffffffffff16908a908890811061111357fe5b602002602001015160400151611393565b905061117961117287858151811061113857fe5b602002602001015160200151838560010160008c6001600160a01b03166001600160a01b0316815260200190815260200160002054611364565b8590610f3e565b93505050600101611094565b509392505050565b600080805b8351811015611185576111ef610a31868684815181106111ae57fe5b6020026020010151600001518785815181106111c657fe5b6020026020010151602001518886815181106111de57fe5b602002602001015160400151610e7f565b9150600101611192565b60385461108b906001600160a01b037f0000000000000000000000000000000000000000000000000000000000000000811691168484611433565b81546000906001600160681b03600160681b82048116919081169064ffffffffff600160d01b9091041642811415611271578293505050506104d0565b600061127f84848489611393565b905083811461133a5780816001600160681b0316146112b05760405162461bcd60e51b815260040161036b90611aed565b86546cffffffffffffffffffffffffff60681b1916600160681b6001600160681b038316021764ffffffffff60d01b1916600160d01b4264ffffffffff16021787556040516001600160a01b038916907f5777ca300dfe5bead41006fbce4389794dbc0ed8d6cccebfaf94630aa04184bc9061132d908490611bb0565b60405180910390a2611359565b865464ffffffffff60d01b1916600160d01b4264ffffffffff16021787555b979650505050505050565b6000670de0b6b3a764000061138361137c858561148d565b869061149d565b8161138a57fe5b04949350505050565b6035546000908415806113a4575082155b806113b7575042846001600160801b0316145b806113cb575080846001600160801b031610155b156113d95785915050610385565b60008142116113e857426113ea565b815b90506000611401826001600160801b03881661148d565b905061061f8861142d87611427670de0b6b3a76400006114218d8861149d565b9061149d565b906114c1565b90610f3e565b604080516001600160a01b0380861660248301528416604482015260648082018490528251808303909101815260849091019091526020810180516001600160e01b03166323b872dd60e01b17905261041c9085906114d4565b8082038281111561044d57600080fd5b60008215806114b8575050818102818382816114b557fe5b04145b61044d57600080fd5b60008183816114cc57fe5b049392505050565b6114e6826001600160a01b031661168c565b611537576040805162461bcd60e51b815260206004820152601f60248201527f5361666545524332303a2063616c6c20746f206e6f6e2d636f6e747261637400604482015290519081900360640190fd5b60006060836001600160a01b0316836040518082805190602001908083835b602083106115755780518252601f199092019160209182019101611556565b6001836020036101000a0380198251168184511680821785525050505050509050019150506000604051808303816000865af19150503d80600081146115d7576040519150601f19603f3d011682016040523d82523d6000602084013e6115dc565b606091505b509150915081611633576040805162461bcd60e51b815260206004820181905260248201527f5361666545524332303a206c6f772d6c6576656c2063616c6c206661696c6564604482015290519081900360640190fd5b80511561041c5780806020019051602081101561164f57600080fd5b505161041c5760405162461bcd60e51b815260040180806020018281038252602a815260200180611c0c602a913960400191505060405180910390fd5b6000813f7fc5d2460186f7233c927e7db2dcc703c0e500b653ca82273b7bfad8045d85a470818114801590610385575050151592915050565b604080516060810182526000808252602082018190529181019190915290565b604051806060016040528060006001600160a01b0316815260200160008152602001600081525090565b80356001600160a01b038116811461033e57600080fd5b60008083601f840112611737578182fd5b50813567ffffffffffffffff81111561174e578182fd5b602083019150836020808302850101111561176857600080fd5b9250929050565b600060208284031215611780578081fd5b6104d08261170f565b6000806040838503121561179b578081fd5b6117a48361170f565b91506117b26020840161170f565b90509250929050565b6000806000606084860312156117cf578081fd5b6117d88461170f565b95602085013595506040909401359392505050565b600080600060408486031215611801578283fd5b833567ffffffffffffffff811115611817578384fd5b61182386828701611726565b909450925061183690506020850161170f565b90509250925092565b60008060008060408587031215611854578081fd5b843567ffffffffffffffff8082111561186b578283fd5b61187788838901611726565b9096509450602087013591508082111561188f578283fd5b5061189c87828801611726565b95989497509550505050565b6000806000604084860312156118bc578283fd5b833567ffffffffffffffff8111156118d2578384fd5b6118de86828701611726565b909790965060209590950135949350505050565b60008060008060608587031215611907578384fd5b843567ffffffffffffffff81111561191d578485fd5b61192987828801611726565b909550935050602085013591506119426040860161170f565b905092959194509250565b600080600080600060808688031215611964578081fd5b853567ffffffffffffffff81111561197a578182fd5b61198688828901611726565b9096509450506020860135925061199f6040870161170f565b91506119ad6060870161170f565b90509295509295909350565b6000602082840312156119ca578081fd5b5035919050565b6000602082840312156119e2578081fd5b5051919050565b600080604083850312156119fb578182fd5b505080516020909101519092909150565b6001600160a01b0391909116815260200190565b602080825260149082015273494e56414c49445f555345525f4144445245535360601b604082015260600190565b602080825260129082015271494e56414c49445f544f5f4144445245535360701b604082015260600190565b60208082526015908201527424a72b20a624a22fa1a7a72324a3aaa920aa24a7a760591b604082015260600190565b60208082526024908201527f496e646578206f766572666c6f7720617420656d697373696f6e73506572536560408201526318dbdb9960e21b606082015260800190565b6020808252600e908201526d496e646578206f766572666c6f7760901b604082015260600190565b60208082526015908201527427a7262cafa2a6a4a9a9a4a7a72fa6a0a720a3a2a960591b604082015260600190565b60208082526014908201527310d3105253515497d5539055551213d49256915160621b604082015260600190565b6001600160681b0391909116815260200190565b6001600160681b03938416815291909216602082015264ffffffffff909116604082015260600190565b90815260200190565b9283526020830191909152604082015260600190565b60ff9190911681526020019056fe436f6e747261637420696e7374616e63652068617320616c7265616479206265656e20696e697469616c697a65645361666545524332303a204552433230206f7065726174696f6e20646964206e6f742073756363656564a2646970667358221220564faddd78e202b891a2bc2c7c74e44fa13cd9bf258fa79bf1877ce0b9485cee64736f6c63430007050033",
  "linkReferences": {},
  "deployedLinkReferences": {}
}