{
  "_format": "hh-sol-artifact-1",
  "contractName": "StakedTokenIncentivesController",
  "sourceName": "contracts/incentives/StakedTokenIncentivesController.sol",
  "abi": [
    {
      "inputs": [
        {
          "internalType": "contract IStakedTokenWithConfig",
          "name": "stakeToken",
          "type": "address"
        }
      ],
      "stateMutability": "nonpayable",
      "type": "constructor"
    },
    {
      "anonymous": false,
      "inputs": [
        {
          "indexed": true,
          "internalType": "address",
          "name": "asset",
          "type": "address"
        },
        {
          "indexed": false,
          "internalType": "uint256",
          "name": "emission",
          "type": "uint256"
        }
      ],
      "name": "AssetConfigUpdated",
      "type": "event"
    },
    {
      "anonymous": false,
      "inputs": [
        {
          "indexed": true,
          "internalType": "address",
          "name": "asset",
          "type": "address"
        },
        {
          "indexed": false,
          "internalType": "uint256",
          "name": "index",
          "type": "uint256"
        }
      ],
      "name": "AssetIndexUpdated",
      "type": "event"
    },
    {
      "anonymous": false,
      "inputs": [
        {
          "indexed": true,
          "internalType": "address",
          "name": "user",
          "type": "address"
        },
        {
          "indexed": true,
          "internalType": "address",
          "name": "claimer",
          "type": "address"
        }
      ],
      "name": "ClaimerSet",
      "type": "event"
    },
    {
      "anonymous": false,
      "inputs": [
        {
          "indexed": false,
          "internalType": "uint256",
          "name": "newDistributionEnd",
          "type": "uint256"
        }
      ],
      "name": "DistributionEndUpdated",
      "type": "event"
    },
    {
      "anonymous": false,
      "inputs": [
        {
          "indexed": true,
          "internalType": "address",
          "name": "user",
          "type": "address"
        },
        {
          "indexed": false,
          "internalType": "uint256",
          "name": "amount",
          "type": "uint256"
        }
      ],
      "name": "RewardsAccrued",
      "type": "event"
    },
    {
      "anonymous": false,
      "inputs": [
        {
          "indexed": true,
          "internalType": "address",
          "name": "user",
          "type": "address"
        },
        {
          "indexed": true,
          "internalType": "address",
          "name": "to",
          "type": "address"
        },
        {
          "indexed": true,
          "internalType": "address",
          "name": "claimer",
          "type": "address"
        },
        {
          "indexed": false,
          "internalType": "uint256",
          "name": "amount",
          "type": "uint256"
        }
      ],
      "name": "RewardsClaimed",
      "type": "event"
    },
    {
      "anonymous": false,
      "inputs": [
        {
          "indexed": true,
          "internalType": "address",
          "name": "user",
          "type": "address"
        },
        {
          "indexed": true,
          "internalType": "address",
          "name": "asset",
          "type": "address"
        },
        {
          "indexed": false,
          "internalType": "uint256",
          "name": "index",
          "type": "uint256"
        }
      ],
      "name": "UserIndexUpdated",
      "type": "event"
    },
    {
      "inputs": [],
      "name": "DISTRIBUTION_END",
      "outputs": [
        {
          "internalType": "uint256",
          "name": "",
          "type": "uint256"
        }
      ],
      "stateMutability": "view",
      "type": "function"
    },
    {
      "inputs": [],
      "name": "EMISSION_MANAGER",
      "outputs": [
        {
          "internalType": "address",
          "name": "",
          "type": "address"
        }
      ],
      "stateMutability": "view",
      "type": "function"
    },
    {
      "inputs": [],
      "name": "PRECISION",
      "outputs": [
        {
          "internalType": "uint8",
          "name": "",
          "type": "uint8"
        }
      ],
      "stateMutability": "view",
      "type": "function"
    },
    {
      "inputs": [],
      "name": "REVISION",
      "outputs": [
        {
          "internalType": "uint256",
          "name": "",
          "type": "uint256"
        }
      ],
      "stateMutability": "view",
      "type": "function"
    },
    {
      "inputs": [],
      "name": "REWARD_TOKEN",
      "outputs": [
        {
          "internalType": "address",
          "name": "",
          "type": "address"
        }
      ],
      "stateMutability": "view",
      "type": "function"
    },
    {
      "inputs": [],
      "name": "STAKE_TOKEN",
      "outputs": [
        {
          "internalType": "contract IStakedTokenWithConfig",
          "name": "",
          "type": "address"
        }
      ],
      "stateMutability": "view",
      "type": "function"
    },
    {
      "inputs": [
        {
          "internalType": "address",
          "name": "",
          "type": "address"
        }
      ],
      "name": "assets",
      "outputs": [
        {
          "internalType": "uint104",
          "name": "emissionPerSecond",
          "type": "uint104"
        },
        {
          "internalType": "uint104",
          "name": "index",
          "type": "uint104"
        },
        {
          "internalType": "uint40",
          "name": "lastUpdateTimestamp",
          "type": "uint40"
        }
      ],
      "stateMutability": "view",
      "type": "function"
    },
    {
      "inputs": [
        {
          "internalType": "address[]",
          "name": "assets",
          "type": "address[]"
        },
        {
          "internalType": "uint256",
          "name": "amount",
          "type": "uint256"
        },
        {
          "internalType": "address",
          "name": "to",
          "type": "address"
        }
      ],
      "name": "claimRewards",
      "outputs": [
        {
          "internalType": "uint256",
          "name": "",
          "type": "uint256"
        }
      ],
      "stateMutability": "nonpayable",
      "type": "function"
    },
    {
      "inputs": [
        {
          "internalType": "address[]",
          "name": "assets",
          "type": "address[]"
        },
        {
          "internalType": "uint256",
          "name": "amount",
          "type": "uint256"
        },
        {
          "internalType": "address",
          "name": "user",
          "type": "address"
        },
        {
          "internalType": "address",
          "name": "to",
          "type": "address"
        }
      ],
      "name": "claimRewardsOnBehalf",
      "outputs": [
        {
          "internalType": "uint256",
          "name": "",
          "type": "uint256"
        }
      ],
      "stateMutability": "nonpayable",
      "type": "function"
    },
    {
      "inputs": [
        {
          "internalType": "address[]",
          "name": "assets",
          "type": "address[]"
        },
        {
          "internalType": "uint256",
          "name": "amount",
          "type": "uint256"
        }
      ],
      "name": "claimRewardsToSelf",
      "outputs": [
        {
          "internalType": "uint256",
          "name": "",
          "type": "uint256"
        }
      ],
      "stateMutability": "nonpayable",
      "type": "function"
    },
    {
      "inputs": [
        {
          "internalType": "address[]",
          "name": "assets",
          "type": "address[]"
        },
        {
          "internalType": "uint256[]",
          "name": "emissionsPerSecond",
          "type": "uint256[]"
        }
      ],
      "name": "configureAssets",
      "outputs": [],
      "stateMutability": "nonpayable",
      "type": "function"
    },
    {
      "inputs": [
        {
          "internalType": "address",
          "name": "asset",
          "type": "address"
        }
      ],
      "name": "getAssetData",
      "outputs": [
        {
          "internalType": "uint256",
          "name": "",
          "type": "uint256"
        },
        {
          "internalType": "uint256",
          "name": "",
          "type": "uint256"
        },
        {
          "internalType": "uint256",
          "name": "",
          "type": "uint256"
        }
      ],
      "stateMutability": "view",
      "type": "function"
    },
    {
      "inputs": [
        {
          "internalType": "address",
          "name": "user",
          "type": "address"
        }
      ],
      "name": "getClaimer",
      "outputs": [
        {
          "internalType": "address",
          "name": "",
          "type": "address"
        }
      ],
      "stateMutability": "view",
      "type": "function"
    },
    {
      "inputs": [],
      "name": "getDistributionEnd",
      "outputs": [
        {
          "internalType": "uint256",
          "name": "",
          "type": "uint256"
        }
      ],
      "stateMutability": "view",
      "type": "function"
    },
    {
      "inputs": [
        {
          "internalType": "address[]",
          "name": "assets",
          "type": "address[]"
        },
        {
          "internalType": "address",
          "name": "user",
          "type": "address"
        }
      ],
      "name": "getRewardsBalance",
      "outputs": [
        {
          "internalType": "uint256",
          "name": "",
          "type": "uint256"
        }
      ],
      "stateMutability": "view",
      "type": "function"
    },
    {
      "inputs": [
        {
          "internalType": "address",
          "name": "user",
          "type": "address"
        },
        {
          "internalType": "address",
          "name": "asset",
          "type": "address"
        }
      ],
      "name": "getUserAssetData",
      "outputs": [
        {
          "internalType": "uint256",
          "name": "",
          "type": "uint256"
        }
      ],
      "stateMutability": "view",
      "type": "function"
    },
    {
      "inputs": [
        {
          "internalType": "address",
          "name": "_user",
          "type": "address"
        }
      ],
      "name": "getUserUnclaimedRewards",
      "outputs": [
        {
          "internalType": "uint256",
          "name": "",
          "type": "uint256"
        }
      ],
      "stateMutability": "view",
      "type": "function"
    },
    {
      "inputs": [
        {
          "internalType": "address",
          "name": "user",
          "type": "address"
        },
        {
          "internalType": "uint256",
          "name": "totalSupply",
          "type": "uint256"
        },
        {
          "internalType": "uint256",
          "name": "userBalance",
          "type": "uint256"
        }
      ],
      "name": "handleAction",
      "outputs": [],
      "stateMutability": "nonpayable",
      "type": "function"
    },
    {
      "inputs": [
        {
          "internalType": "address",
          "name": "emissionManager",
          "type": "address"
        }
      ],
      "name": "initialize",
      "outputs": [],
      "stateMutability": "nonpayable",
      "type": "function"
    },
    {
      "inputs": [
        {
          "internalType": "address",
          "name": "user",
          "type": "address"
        },
        {
          "internalType": "address",
          "name": "caller",
          "type": "address"
        }
      ],
      "name": "setClaimer",
      "outputs": [],
      "stateMutability": "nonpayable",
      "type": "function"
    },
    {
      "inputs": [
        {
          "internalType": "uint256",
          "name": "distributionEnd",
          "type": "uint256"
        }
      ],
      "name": "setDistributionEnd",
      "outputs": [],
      "stateMutability": "nonpayable",
      "type": "function"
    }
  ],
  "bytecode": "0x60c06040526000805534801561001457600080fd5b50604051611eb4380380611eb48339810160408190526100339161004d565b60601b6001600160601b031916608081905260a05261007b565b60006020828403121561005e578081fd5b81516001600160a01b0381168114610074578182fd5b9392505050565b60805160601c60a05160601c611e016100b3600039806103235280610a1c5280610a40528061133652508061099d5250611e016000f3fe608060405234801561001057600080fd5b50600436106101375760003560e01c806379f171b2116100b8578063c4d66de81161007c578063c4d66de81461026e578063cbcbb50714610281578063cc69afec14610249578063dde43cba14610289578063f11b818814610291578063f5cf673b146102b357610137565b806379f171b2146102235780638b599f2614610236578063919cd40f1461024957806399248ea714610251578063aaf5eb681461025957610137565b80633373ee4c116100ff5780633373ee4c146101c457806339ccbdd3146101d757806341485304146101ea5780636d34b96e146101fd57806374d945ec1461021057610137565b80631652e7b71461013c578063198fa81e146101675780631c39b672146101875780633111e7b31461019c57806331873e2e146101af575b600080fd5b61014f61014a36600461186d565b6102c6565b60405161015e93929190611d01565b60405180910390f35b61017a61017536600461186d565b610306565b60405161015e9190611cf8565b61018f610321565b60405161015e9190611b3b565b61017a6101aa366004611a19565b610345565b6101c26101bd3660046118dd565b61038f565b005b61017a6101d23660046118a5565b610424565b6101c26101e5366004611ae8565b610455565b61017a6101f83660046119cf565b6104bf565b61017a61020b366004611a76565b6104d9565b61018f61021e36600461186d565b61057e565b6101c2610231366004611966565b61059c565b61017a610244366004611911565b6107de565b61017a610995565b61018f61099b565b6102616109bf565b60405161015e9190611d17565b6101c261027c36600461186d565b6109c4565b61018f610b02565b61017a610b11565b6102a461029f36600461186d565b610b16565b60405161015e93929190611cce565b6101c26102c13660046118a5565b610b4d565b6001600160a01b0316600090815260346020526040902054600160681b81046001600160681b039081169290821691600160d01b900464ffffffffff1690565b6001600160a01b031660009081526036602052604090205490565b7f000000000000000000000000000000000000000000000000000000000000000081565b60006001600160a01b0382166103765760405162461bcd60e51b815260040161036d90611b96565b60405180910390fd5b610384858585333387610bce565b90505b949350505050565b600061039d84338486610e8d565b9050801561041e576001600160a01b0384166000908152603660205260409020546103c89082610f4c565b6001600160a01b038516600081815260366020526040908190209290925590517f2468f9268c60ad90e2d49edb0032c8a001e733ae888b3ab8e982edf535be1a7690610415908490611cf8565b60405180910390a25b50505050565b6001600160a01b03808216600090815260346020908152604080832093861683526001909301905220545b92915050565b6033546001600160a01b0316331461047f5760405162461bcd60e51b815260040161036d90611c5d565b60358190556040517f1cc1849a6602c3e91f2088cadea4381cc5717f2f28584197060ed2ebb434c16f906104b4908390611cf8565b60405180910390a150565b60006104cf848484333333610bce565b90505b9392505050565b6001600160a01b038083166000908152603760205260408120549091339185911682146105185760405162461bcd60e51b815260040161036d90611c8c565b6001600160a01b03851661053e5760405162461bcd60e51b815260040161036d90611b68565b6001600160a01b0384166105645760405162461bcd60e51b815260040161036d90611b96565b610572888888338989610bce565b98975050505050505050565b6001600160a01b039081166000908152603760205260409020541690565b6033546001600160a01b031633146105c65760405162461bcd60e51b815260040161036d90611c5d565b8281146105e55760405162461bcd60e51b815260040161036d90611bc2565b60608367ffffffffffffffff811180156105fe57600080fd5b5060405190808252806020026020018201604052801561063857816020015b6106256117da565b81526020019060019003908161061d5790505b50905060005b848110156107cd5783838281811061065257fe5b9050602002013584848381811061066557fe5b905060200201356001600160681b0316146106925760405162461bcd60e51b815260040161036d90611bf1565b85858281811061069e57fe5b90506020020160208101906106b3919061186d565b8282815181106106bf57fe5b6020026020010151604001906001600160a01b031690816001600160a01b0316815250508383828181106106ef57fe5b9050602002013582828151811061070257fe5b60209081029190910101516001600160681b03909116905285858281811061072657fe5b905060200201602081019061073b919061186d565b6001600160a01b031663b1bf962d6040518163ffffffff1660e01b815260040160206040518083038186803b15801561077357600080fd5b505afa158015610787573d6000803e3d6000fd5b505050506040513d601f19601f820116820180604052508101906107ab9190611b00565b8282815181106107b757fe5b602090810291909101810151015260010161063e565b506107d781610f5c565b5050505050565b6001600160a01b03811660009081526036602052604081205460608467ffffffffffffffff8111801561081057600080fd5b5060405190808252806020026020018201604052801561084a57816020015b6108376117fa565b81526020019060019003908161082f5790505b50905060005b858110156109765786868281811061086457fe5b9050602002016020810190610879919061186d565b82828151811061088557fe5b60209081029190910101516001600160a01b0390911690528686828181106108a957fe5b90506020020160208101906108be919061186d565b6001600160a01b0316630afbcdc9866040518263ffffffff1660e01b81526004016108e99190611b3b565b604080518083038186803b15801561090057600080fd5b505afa158015610914573d6000803e3d6000fd5b505050506040513d601f19601f820116820180604052508101906109389190611b18565b83838151811061094457fe5b602002602001015160200184848151811061095b57fe5b60209081029190910101516040019190915252600101610850565b5061098b6109848583611098565b8390610f4c565b9695505050505050565b60355490565b7f000000000000000000000000000000000000000000000000000000000000000081565b601281565b60006109ce611196565b90506000548111610a105760405162461bcd60e51b815260040180806020018281038252602e815260200180611d3e602e913960400191505060405180910390fd5b80600081905550610adf7f00000000000000000000000000000000000000000000000000000000000000006000197f00000000000000000000000000000000000000000000000000000000000000006001600160a01b031663312f6b836040518163ffffffff1660e01b815260040160206040518083038186803b158015610a9757600080fd5b505afa158015610aab573d6000803e3d6000fd5b505050506040513d601f19601f82011682018060405250810190610acf9190611889565b6001600160a01b0316919061119b565b50603380546001600160a01b0319166001600160a01b0392909216919091179055565b6033546001600160a01b031690565b600181565b6034602052600090815260409020546001600160681b0380821691600160681b810490911690600160d01b900464ffffffffff1683565b6033546001600160a01b03163314610b775760405162461bcd60e51b815260040161036d90611c5d565b6001600160a01b0382811660008181526037602052604080822080546001600160a01b0319169486169485179055517f4925eafc82d0c4d67889898eeed64b18488ab19811e61620f387026dec126a289190a35050565b600084610bdd5750600061098b565b6001600160a01b03831660009081526036602052604090205480861115610de35760608767ffffffffffffffff81118015610c1757600080fd5b50604051908082528060200260200182016040528015610c5157816020015b610c3e6117fa565b815260200190600190039081610c365790505b50905060005b88811015610d7d57898982818110610c6b57fe5b9050602002016020810190610c80919061186d565b828281518110610c8c57fe5b60209081029190910101516001600160a01b039091169052898982818110610cb057fe5b9050602002016020810190610cc5919061186d565b6001600160a01b0316630afbcdc9876040518263ffffffff1660e01b8152600401610cf09190611b3b565b604080518083038186803b158015610d0757600080fd5b505afa158015610d1b573d6000803e3d6000fd5b505050506040513d601f19601f82011682018060405250810190610d3f9190611b18565b838381518110610d4b57fe5b6020026020010151602001848481518110610d6257fe5b60209081029190910101516040019190915252600101610c57565b506000610d8a86836112b3565b90508015610de057610d9c8382610f4c565b9250856001600160a01b03167f2468f9268c60ad90e2d49edb0032c8a001e733ae888b3ab8e982edf535be1a7682604051610dd79190611cf8565b60405180910390a25b50505b80610df257600091505061098b565b6000818711610e015786610e03565b815b6001600160a01b038616600090815260366020526040902081840390559050610e2c848261131f565b856001600160a01b0316846001600160a01b0316866001600160a01b03167f5637d7f962248a7f05a7ab69eec6446e31f3d0a299d997f135a65c62806e789184604051610e799190611cf8565b60405180910390a498975050505050505050565b6001600160a01b0380841660009081526034602090815260408083209388168352600184019091528120549091908280610ec88885886113a3565b9050808314610f40578615610ee557610ee28782856114d3565b91505b6001600160a01b03808a1660008181526001870160205260409081902084905551918a16917fbb123b5c06d5408bbea3c4fef481578175cfb432e3b482c6186f02ed9086585b90610f37908590611cf8565b60405180910390a35b50979650505050505050565b8082018281101561044f57600080fd5b60005b815181101561109457600060346000848481518110610f7a57fe5b6020026020010151604001516001600160a01b03166001600160a01b031681526020019081526020016000209050610fe1838381518110610fb757fe5b60200260200101516040015182858581518110610fd057fe5b6020026020010151602001516113a3565b50828281518110610fee57fe5b60209081029190910101515181546cffffffffffffffffffffffffff19166001600160681b03909116178155825183908390811061102857fe5b6020026020010151604001516001600160a01b03167f87fa03892a0556cb6b8f97e6d533a150d4d55fcbf275fff5fa003fa636bcc7fa84848151811061106a57fe5b6020026020010151600001516040516110839190611cba565b60405180910390a250600101610f5f565b5050565b600080805b835181101561118e576000603460008684815181106110b857fe5b602090810291909101810151516001600160a01b0316825281019190915260400160009081208054875191935061112d91600160681b82046001600160681b039081169290811691600160d01b90910464ffffffffff16908a908890811061111c57fe5b602002602001015160400151611502565b905061118261117b87858151811061114157fe5b602002602001015160200151838560010160008c6001600160a01b03166001600160a01b03168152602001908152602001600020546114d3565b8590610f4c565b9350505060010161109d565b509392505050565b600190565b801580611221575060408051636eb1769f60e11b81523060048201526001600160a01b03848116602483015291519185169163dd62ed3e91604480820192602092909190829003018186803b1580156111f357600080fd5b505afa158015611207573d6000803e3d6000fd5b505050506040513d602081101561121d57600080fd5b5051155b61125c5760405162461bcd60e51b8152600401808060200182810382526036815260200180611d966036913960400191505060405180910390fd5b604080516001600160a01b038416602482015260448082018490528251808303909101815260649091019091526020810180516001600160e01b031663095ea7b360e01b1790526112ae9084906115a2565b505050565b600080805b835181101561118e57611315610984868684815181106112d457fe5b6020026020010151600001518785815181106112ec57fe5b60200260200101516020015188868151811061130457fe5b602002602001015160400151610e8d565b91506001016112b8565b6040516356e4bb9760e11b81526001600160a01b037f0000000000000000000000000000000000000000000000000000000000000000169063adc9772e9061136d9085908590600401611b4f565b600060405180830381600087803b15801561138757600080fd5b505af115801561139b573d6000803e3d6000fd5b505050505050565b81546000906001600160681b03600160681b82048116919081169064ffffffffff600160d01b90910416428114156113e0578293505050506104d2565b60006113ee84848489611502565b90508381146114a95780816001600160681b03161461141f5760405162461bcd60e51b815260040161036d90611c35565b86546cffffffffffffffffffffffffff60681b1916600160681b6001600160681b038316021764ffffffffff60d01b1916600160d01b4264ffffffffff16021787556040516001600160a01b038916907f5777ca300dfe5bead41006fbce4389794dbc0ed8d6cccebfaf94630aa04184bc9061149c908490611cf8565b60405180910390a26114c8565b865464ffffffffff60d01b1916600160d01b4264ffffffffff16021787555b979650505050505050565b6000670de0b6b3a76400006114f26114eb858561175a565b869061176a565b816114f957fe5b04949350505050565b603554600090841580611513575082155b80611526575042846001600160801b0316145b8061153a575080846001600160801b031610155b156115485785915050610387565b60008142116115575742611559565b815b90506000611570826001600160801b03881661175a565b90506105728861159c87611596670de0b6b3a76400006115908d8861176a565b9061176a565b9061178e565b90610f4c565b6115b4826001600160a01b03166117a1565b611605576040805162461bcd60e51b815260206004820152601f60248201527f5361666545524332303a2063616c6c20746f206e6f6e2d636f6e747261637400604482015290519081900360640190fd5b60006060836001600160a01b0316836040518082805190602001908083835b602083106116435780518252601f199092019160209182019101611624565b6001836020036101000a0380198251168184511680821785525050505050509050019150506000604051808303816000865af19150503d80600081146116a5576040519150601f19603f3d011682016040523d82523d6000602084013e6116aa565b606091505b509150915081611701576040805162461bcd60e51b815260206004820181905260248201527f5361666545524332303a206c6f772d6c6576656c2063616c6c206661696c6564604482015290519081900360640190fd5b80511561041e5780806020019051602081101561171d57600080fd5b505161041e5760405162461bcd60e51b815260040180806020018281038252602a815260200180611d6c602a913960400191505060405180910390fd5b8082038281111561044f57600080fd5b60008215806117855750508181028183828161178257fe5b04145b61044f57600080fd5b600081838161179957fe5b049392505050565b6000813f7fc5d2460186f7233c927e7db2dcc703c0e500b653ca82273b7bfad8045d85a470818114801590610387575050151592915050565b604080516060810182526000808252602082018190529181019190915290565b604051806060016040528060006001600160a01b0316815260200160008152602001600081525090565b60008083601f840112611835578182fd5b50813567ffffffffffffffff81111561184c578182fd5b602083019150836020808302850101111561186657600080fd5b9250929050565b60006020828403121561187e578081fd5b81356104d281611d25565b60006020828403121561189a578081fd5b81516104d281611d25565b600080604083850312156118b7578081fd5b82356118c281611d25565b915060208301356118d281611d25565b809150509250929050565b6000806000606084860312156118f1578081fd5b83356118fc81611d25565b95602085013595506040909401359392505050565b600080600060408486031215611925578283fd5b833567ffffffffffffffff81111561193b578384fd5b61194786828701611824565b909450925050602084013561195b81611d25565b809150509250925092565b6000806000806040858703121561197b578081fd5b843567ffffffffffffffff80821115611992578283fd5b61199e88838901611824565b909650945060208701359150808211156119b6578283fd5b506119c387828801611824565b95989497509550505050565b6000806000604084860312156119e3578283fd5b833567ffffffffffffffff8111156119f9578384fd5b611a0586828701611824565b909790965060209590950135949350505050565b60008060008060608587031215611a2e578384fd5b843567ffffffffffffffff811115611a44578485fd5b611a5087828801611824565b909550935050602085013591506040850135611a6b81611d25565b939692955090935050565b600080600080600060808688031215611a8d578081fd5b853567ffffffffffffffff811115611aa3578182fd5b611aaf88828901611824565b909650945050602086013592506040860135611aca81611d25565b91506060860135611ada81611d25565b809150509295509295909350565b600060208284031215611af9578081fd5b5035919050565b600060208284031215611b11578081fd5b5051919050565b60008060408385031215611b2a578182fd5b505080516020909101519092909150565b6001600160a01b0391909116815260200190565b6001600160a01b03929092168252602082015260400190565b602080825260149082015273494e56414c49445f555345525f4144445245535360601b604082015260600190565b602080825260129082015271494e56414c49445f544f5f4144445245535360701b604082015260600190565b60208082526015908201527424a72b20a624a22fa1a7a72324a3aaa920aa24a7a760591b604082015260600190565b60208082526024908201527f496e646578206f766572666c6f7720617420656d697373696f6e73506572536560408201526318dbdb9960e21b606082015260800190565b6020808252600e908201526d496e646578206f766572666c6f7760901b604082015260600190565b60208082526015908201527427a7262cafa2a6a4a9a9a4a7a72fa6a0a720a3a2a960591b604082015260600190565b60208082526014908201527310d3105253515497d5539055551213d49256915160621b604082015260600190565b6001600160681b0391909116815260200190565b6001600160681b03938416815291909216602082015264ffffffffff909116604082015260600190565b90815260200190565b9283526020830191909152604082015260600190565b60ff91909116815260200190565b6001600160a01b0381168114611d3a57600080fd5b5056fe436f6e747261637420696e7374616e63652068617320616c7265616479206265656e20696e697469616c697a65645361666545524332303a204552433230206f7065726174696f6e20646964206e6f7420737563636565645361666545524332303a20617070726f76652066726f6d206e6f6e2d7a65726f20746f206e6f6e2d7a65726f20616c6c6f77616e6365a2646970667358221220a4b2fcfcfc8fb6c1c7dddc6c49cff345e5da253e25456b53972086cbe822c4e564736f6c63430007050033",
  "linkReferences": {},
  "deployedLinkReferences": {}
}